:0400000061EF3DF07F
:107AAE00700ED312030ED312120040792430191225
:107ABE0002780010B80EF66E7A0EF76E000EF86EA3
:107ACE0000EE26F010EE0AF00900F5CFEEFFE550BD
:107ADE00E150FAE1000EF86E0001E3EF3EF0000E09
:107AEE000F015E6F000E956E8C685C9193805C93B7
:107AFE009382939C8A9C5C9793968A965C999398B2
:107B0E008A985C9B939A8A9A5C9593841200035090
:107B1E000410D8B495EF3DF097EF3DF0BBEF3DF07C
:107B2E00010E056E9FEF3DF0D89003360436052A00
:107B3E0004AEA4EF3DF0A6EF3DF09BEF3DF00350F9
:107B4E00015C04500258D8A0AFEF3DF0B1EF3DF00C
:107B5E00B5EF3DF00350015E0450025AD890043246
:107B6E000332052EA6EF3DF001C001F002C002F077
:107B7E001200000E0B6E000E0A6E08500910D8B4DB
:107B8E00CBEF3DF0CDEF3DF0F5EF3DF0010E0C6E7D
:107B9E00D5EF3DF0D890083609360C2A09AEDAEF4B
:107BAE003DF0DCEF3DF0D1EF3DF0D8900A360B36CC
:107BBE000850065C09500758D8A0E8EF3DF0EAEFF0
:107BCE003DF0EFEF3DF00850065E0950075A0A806F
:107BDE00D890093208320C2EDCEF3DF00AC006F0C8
:107BEE000BC007F0120081B2FFEF3DF001EF3EF047
:107BFE0037EF3EF01BC0D9FF1CC0DAFFDE50DE109F
:107C0E00D8B40CEF3EF00EEF3EF037EF3EF01BC057
:107C1E00D9FF1CC0DAFFDECF1DF0DDCF1EF0FF0E48
:107C2E001D241F6EFF0E1E20206E1BC0D9FF1CC010
:107C3E00DAFF1FC0DEFF20C0DDFF30EF3EF01BC0BD
:107C4E00D9FF1CC0DAFFDECF17F0DDCF18F076ECCF
:107C5E003EF081A235EF3EF037EF3EF026EF3EF0DC
:107C6E00120081B03DEF3EF03FEF3EF075EF3EF07B
:107C7E001BC0D9FF1CC0DAFF0F0EDE5C270EDE58CC
:107C8E00D8B04CEF3EF04EEF3EF075EF3EF01BC01D
:107C9E00D9FF1CC0DAFFDECF1DF0DDCF1EF0010EC6
:107CAE001D26000E1E221BC0D9FF1CC0DAFF1DC0F0
:107CBE00DEFF1EC0DDFF6EEF3EF01BC0D9FF1CC005
:107CCE00DAFFDECF17F0DDCF18F076EC3EF081A0B4
:107CDE0073EF3EF075EF3EF064EF3EF0120017C00A
:107CEE000DF018C00EF06D0E66EC3FF0196E1A6AAC
:107CFE00260E1924D96E000E1A20DA6EDF508C6E05
:107D0E008A8C0B0E196E620EE82EFED7192EFCD73A
:107D1E0000D08A9C17C00DF018C00EF0630E66ECF2
:107D2E003FF0196E1A6A260E1924D96E000E1A200B
:107D3E00DA6EDF508C6E8A860B0E196E620EE82E8E
:107D4E00FED7192EFCD700D08A9617C00DF018C09A
:107D5E000EF0640E66EC3FF0196E1A6A260E1924A8
:107D6E00D96E000E1A20DA6EDF508C6E8A880B0EDA
:107D7E00196E620EE82EFED7192EFCD700D08A9807
:107D8E0017C00DF018C00EF0750E66EC3FF0196EB0
:107D9E001A6A260E1924D96E000E1A20DA6EDF50DA
:107DAE008C6E8A8A0B0E196E620EE82EFED7192E75
:107DBE00FCD700D08A9A120057EC3DF076EC3DF0DD
:107DCE00000E256E000E246E000E236E000E226E27
:107DDE00000E216E81B4F6EF3EF0F8EF3EF00DEF9F
:107DEE003FF004EF3FF0000E256E000E246E000EE5
:107DFE00186E000E176E76EC3EF081A409EF3FF080
:107E0E000BEF3FF0FAEF3EF02328236E2304D8A4A5
:107E1E0013EF3FF015EF3FF029EF3FF0240E1B6EEE
:107E2E00000E1C6E38EC3EF0240E1B6E000E1C6E07
:107E3E00FAEC3DF024C017F025C018F076EC3EF0B9
:107E4E00F1EF3EF0020E2318D8A430EF3FF032EFE0
:107E5E003FF060EF3FF0010E2124216E000E222034
:107E6E00226E225009E10B0E215CD8A041EF3FF0AB
:107E7E0043EF3FF058EF3FF00F0E245C270E2558CE
:107E8E00D8B04CEF3FF04EEF3FF054EF3FF0010E05
:107E9E002424246E000E2520256E000E226E000E68
:107EAE00216E24C017F025C018F076EC3EF0F1EFED
:107EBE003EF0000E236EF1EF3EF000EF00F0136E79
:107ECE00000E166EE1EF3FF00DC006F00EC007F08B
:107EDE00030E096EE80E086EC0EC3DF00650166EED
:107EEE00FEEF3FF0030E046EE80E036E0DC001F0C0
:107EFE000EC002F08EEC3DF001C006F002C007F09D
:107F0E00000E096E640E086EC0EC3DF00650166E43
:107F1E00FEEF3FF0030E046EE80E036E0DC001F08F
:107F2E000EC002F08EEC3DF001C014F002C015F050
:107F3E00000E046E640E036E14C001F015C002F044
:107F4E008EEC3DF001C006F002C007F0000E096E87
:107F5E000A0E086EC0EC3DF00650166EFEEF3FF0B6
:107F6E00030E046EE80E036E0DC001F00EC002F09B
:107F7E008EEC3DF001C014F002C015F0000E046E40
:107F8E00640E036E14C001F015C002F08EEC3DF0CD
:107F9E0001C011F002C012F011C001F012C002F0C7
:107FAE00000E046E0A0E036E8EEC3DF00150166E3E
:107FBE00FEEF3FF013500F6E106A1050000AD8B447
:107FCE00EBEF3FF0FEEF3FF00F50630AD8B479EFBE
:107FDE003FF0070AD8B491EF3FF0090AD8B46BEF1F
:107FEE003FF0180AD8B4B7EF3FF0FEEF3FF016504F
:027FFE0012006F
:020000040020DA
:08000000FFFFFFFFFFFFFFFF00
:020000040030CA
:0E00000000285E3CFFD385FF0FC00FE00F40CD
:00000001FF
